:10000000BD3CCA253B5FCDBD3CF5CDBD3CC14F09D4
:10001000CDBD3CCDBD3C77231DC2133BCDBD3CC205
:10002000673CC3F33ACDBD3C67CDBD3C6FB4CA322B
:100030003BE9E1C398380DCD823DCD603EDA673CA7
:10004000E17ECDD93D0E2DCD793CCD5D3EDA98389F
:10005000CA603BE5CDAE3DD1E17378FE0DCA98385C
:1000600023C3413B0DCD823DE11E003E00D3017B09
:100070002FD302CD373DDB022F77231CC26B3BC34E
:100080009838CD823DCD083DD1E17DC6104F7CCE64
:1000900000477B914F7A98DA9F3B3E10C3A23B7991
:1000A000C611B7CA9838D55F1600CD6D3E0E3ACD51
:1000B0008F3E7BCD423ECD3A3EAFCD423E7E23CDFC
:1000C000423E1DC2BD3BAF92CD423ED1C38A3BCD25
:1000D000863F21D53FFE0DCA383CBECAEB3BF57EBC
:1000E000B7FA673C232323F1C3DA3BCD773C237E69
:1000F000EB6F260039EB2346231ACDD93D05CA06FE
:00000001FF